:100000000C94EE170C9418180C9418180C941818DB
:100010000C9418180C9418180C9418180C941818A0
:100020000C9418180C9418180C9418180C94181890
:100030000C9418180C94193B0C9418180C9418185C
:100040000C9418180C943F590C9416E20C94181840
:100050000C947AB30C9418180C9418180C94181863
:100060000C9418180C9418180C9418180C94181850
:100070000C9418180C9418180C9418180C94181840
:100080000C9400430C9418180C9418186DC870C880
:1000900063C867C887C887C874C878C87EC882C85C
:1000A000CECBD3CBD8CBE2CB10CC10CCECCBF4CB9B
:1000B000FCCB06CC6ED935D86CD8AAD96CD86CD804
:1000C0006CD86CD86CD86CD86CD86CD86CD86CD810
:1000D0006CD86CD86CD86CD86CD86CD86CD86CD800
:1000E0006CD86CD86CD86CD86CD86CD86CD86CD8F0
:1000F000A4D96CD86CD86CD86CD86CD86CD86CD8A7
:100100006CD87DD96CD86CD86CD86CD86CD86CD8BD
:100110006CD86CD86CD86CD8C1D969D8084AD73B90
:100120003BCE016E84BCBFFDC12F3D6C74319ABDC6
:1001300056833DDA3D00C77F11BED9E4BB4C3E91EA
:100140006BAAAABE000000803F05A84CCDB2D44ED9
:10015000B93836A9020C50B9918688083CA6AAAADB
:100160002ABE000000803F004E414E494E4954597E
:10017000494E46CDCCCC3D0AD7233C17B7D1387772
:10018000CC2B329595E6241FB14F0A000020410088
:1001900000C84200401C4620BCBE4CCA1B0E5AAED2
:1001A000C59D7400407A10F35A00A0724E180900E1
:1001B00010A5D4E80000E87648170000E40B5402CC
:1001C0000000CA9A3B000000E1F505000080969807
:1001D00000000040420F000000A086010000001057
:1001E0002700000000E80300000000640000000099
:1001F000000A00000000000100000000002C76D87A
:1002000088DC674F0823DFC1DFAE59E1B1B796E55F
:10021000E3E453C63AE651997696E8E6C28426EBC3
:10022000898C9B62ED407C6FFCEFBC9C9F40F2BAD6
:10023000A56FA5F490055A2AF75C936B6CF9676D6E
:10024000C11BFCE0E40D47FEF520E6B500D0ED90C3
:100250002E0300943577050080841E080000204E90
:100260000A000000C80C333333330F986E12831129
:1002700041EF8D2114893BE65516CFFEE6DB18D100
:10028000844B381BF77C1D901DA4BBE424203284D2
:10029000725E228100C9F124ECA1E53D27434F4D58
:1002A0004D554E49434154494F4E004452595255C1
:1002B0004E004552524F525300494E464F0045435F
:1002C000484F0047322F47332062616420706172CB
:1002D000616D65746572730A00536C6565702E2ECE
:1002E0002E00205A3A200020593A2000426564200E
:1002F000583A2000436C69636B20746F20726573F9
:10030000756D652E2E2E004E6F206D6F76652E005A
:10031000456E642066696C65206C6973740A0042DE
:100320006567696E2066696C65206C6973740A0084
:10033000286E6F2066696C652900534420707269CD
:100340006E74696E67206279746520004E6F742048
:100350005344207072696E74696E670A0043757247
:1003600072656E742066696C653A200025697300B9
:1003700025696D20256973002569682025696D2030
:1003800025697300256964202569682025696D2029
:10039000256973002569792025696420256968200D
:1003A00025696D20256973005072696E7420746927
:1003B0006D653A2000BE02B902B202AB029D026F27
:1003C00066660044454255473A004B494C4C45440B
:1003D0002E20004D3131332053006F6B00435020ED
:1003E000456E6465722D33204F66662E002C20000A
:1003F0002C2000544845524D414C5F50524F5445BB
:100400004354494F4E004155544F5245504F52545A
:100410005F53445F53544154555300454D45524733
:10042000454E43595F504152534552004341534555
:100430005F4C494748545F4252494748544E4553E0
:100440005300544F47474C455F4C4947485453006D
:10045000534F4654574152455F504F574552004203
:1004600055494C445F50455243454E54004C455607
:10047000454C494E475F44415441005A5F50524FEA
:100480004245004155544F4C4556454C0050524949
:100490004E545F4A4F420050524F4752455353000B
:1004A0004155544F5245504F52545F54454D5000A2
:1004B000564F4C554D455452494300454550524FB7
:1004C0004D0053455249414C5F584F4E5F584F467F
:1004D00046004649524D574152455F4E414D453ABF
:1004E0004D61726C696E20312E312E39202847699A
:1004F000746875622920534F555243455F434F44FA
:10050000455F55524C3A68747470733A2F2F67697F
:10051000746875622E636F6D2F4D61726C696E46E3
:1005200069726D776172652F4D61726C696E2050D2
:10053000524F544F434F4C5F56455253494F4E3ADA
:10054000312E30204D414348494E455F5459504566
:100550003A435020456E6465722D332045585452FD
:10056000554445525F434F554E543A3120555549F5
:10057000443A63656465326132662D343161322DEF
:10058000343734382D396231322D633535633632A4
:100590006633363766660A002F2F20004D3134351A
:1005A00020533C696E6465783E206F7574206F66D9
:1005B0002072616E67652028302D31290A00205491
:1005C00000205200416363656C65726174696F6EEF
:1005D0003A20500020466C6F773A200000010F153A
:1005E0000E12FFFFFFFF16170E13FFFFFFFF0302A0
:1005F0001A14FFFFFFFFFFFFFF0C04FFFFFF0100C6
:100600000EFFFFFF0C190DFF18206F7574206F6629
:100610002072616E67650A00536572766F20003A3A
:10062000200020536572766F200043290A00616222
:100630006C656420286D696E2074656D70200043C0
:100640006F6C64206578747275646573206172657F
:1006500020004E6F2063617365206C696768740ABF
:1006600000454550524F4D204F4B0A003F5A206FD6
:100670007574206F662072616E676520282D323098
:1006800020746F203230290A003A200050726F62C5
:1006900065205A204F6666736574004163746976FD
:1006A000652045787472756465723A2000496E76EB
:1006B000616C69642065787472756465720A00FF04
:1006C000FFFFFFEFFFFFFFFFFFFFFFFFFFFFEFEF6A
:1006D000FFFFFFFFFFFFFFFFFFE7DFFFFFFFFFFF62
:1006E000FFFFFFFFE7DFFFFFFFFFFFFFFFFFFFE36E
:1006F000DFFFFFFFFFFFFFFFFFFFF3CFFFFFFFFF66
:10070000FFFFFFFFE1E1CFFFFFFFFFFFFFFE7800EC
:100710000003DDFFFFFFFFFEFF807E0001EEFFFF15
:10072000FFFFFE7DCFFC0000F77FFFFFFFFF8E067F
:100730000000007BBFFFFFFFFFC0000000007DDF67
:10074000FFFFFFFFFC01FE00003EE7FFFFFFFFFF92
:10075000FFFC00031F73FFFFFFFFFFFFF800018F87
:1007600081FFFFFFFFFFFFE0000083F9FFFFFFFFB6
:10077000FFFF00FC0000F0FFFFFFFFFFE00FFFC0E6
:100780000000FFFFFFFFFE03FFFFC00000FFFFFFB1
:10079000FFFFFFFFF9000000FFFFFFFFFFFFFFFC6F
:1007A0000007C0FFFFFFFFFFFFFFFF0007E0FFFFA5
:1007B000FFFFFFFFFFFFE007F1FFFFFFFFFFFFFF6E
:1007C000FFFC07F9FFFFFFFFFFFFFFFFFF03F9FF3C
:1007D000FFFFFFFFFFFFFFFF83F9FFFFFFFFFFFFAB
:1007E000FFFFFFC3FFFFFFFFFFFFFFFFFFFFE1FF73
:1007F000FFFFFFFFFFFFFFFFFFF0BFFFFFFFFFFF58
:10080000FFFFFFFBF83FFFFFFFFFFFFFFFFFF9F8D0
:100810003FFFFFFFFFFFFFFFFF7EF0FFFFFFFFFF38
:10082000FFFFFFFF8E03FFFFFFFFFFFFFFFFFFE064
:100830001FFFFFFFFFFFFFFFFFFFFFFFFFFFFFFFA8
:10084000FFFFFFFFFFFFFFFFFFFFFFFFFFFFFFFFB8
:10085000FFFF7FFFFFFFFF00007FFFFFF87FFFFF2D
:10086000FFFF80007FFFFFE07FFFFFFFFFC3FCFF74
:10087000FFFFF8FFFFFFFFFFC3FCFFFFFFF8FFFFD5
:10088000FFFFFF87FDFFFFFFF1FFFFFFFFFF87FF78
:10089000FFFFFFF1FFFFFFFFFF0FE7F30FFC23FC5C
:1008A0003FFFFFFF0FEF8007F003F01E007FFE1FEA
:1008B000CF8187C787C70C007FFE001FC7C78FC7C0
:1008C0009F0F0CFFFE001F878F1F8F1F0F1FFFFC46
:1008D0003F9F8F8F1F8E001E3FFFFC7F3F0F1E3FED
:1008E0001E3FFE3FFFF87FFF1F1C3F1C7FFC7FFF6A
:1008F000F8FFFF1E1C7E1C7FFC7FFFF0FFCE3E3CFE
:100900007E3C7FB8FFFFF0FF9E3C387C387E78FF4E
:10091000FFE1FF3C7C787C783CF1FFFFE1F8387820
:1009200078101801F1FFFF000060203C007C078078
:100930007FFFFFFFFFFFFE1FFE1FFFFFFF1FFFFFE9
:10094000FFFFFFFF600000000001FF40000000000B
:1009500000FF8000000000007F83CF00000C303FCC
:1009600087FF80000C301F867980000C000F8C30D0
:10097000C7838C30E78C30CFC7CC31F38C30DCECC4
:10098000EC33B98C30D86C6C33198C30D06C0C33A0
:10099000198C30D86C0C33198C30DC6C0E3B198CF4
:1009A00030CF7C079F198C30C77C038F1940000023
:1009B00000000002600000000000061FFFFFFFFFB4
:1009C000FFF8494E56414C49442044415441004DA2
:1009D00032342053256C642054256C64004D32332E
:1009E000202573004739322E30205A2573204525A3
:1009F00073004D34323020532569205A2573004747
:100A0000323820523020582059004731205A3200C5
:100A10004739322E30205A30004D34323020533096
:100A2000205A30002020506C616E6E6572427566EF
:100A300066657242797465733A2000204672656576
:100A4000204D656D6F72793A2000436F6D70696C4F
:100A500065643A204A616E20203920323032300AF3
:100A600000207C20417574686F723A202874686990
:100A70007369736B65697468622C20456E64657276
:100A80002D33290A00323031382D30382D303100E5
:100A9000204C61737420557064617465643A200061
:100AA000312E312E390A004D61726C696E0020536F
:100AB0006F6674776172652052657365740A0020F1
:100AC0005761746368646F672052657365740A00C8
:100AD0002042726F776E206F757420526573657453
:100AE0000A002045787465726E616C2052657365EA
:100AF000740A00506F77657255700A0073746172E2
:100B0000740A006175746F25692E67006572726FD3
:100B1000722077726974696E6720746F2066696CE1
:100B2000650A0057726974696E6720746F20666980
:100B30006C653A2000456E6473746F707320256392
:100B400020256320256320256300205A3A00205980
:100B50003A0020583A00656E6473746F70732068B1
:100B600069743A2000446F6E6520736176696E6720
:100B70002066696C652E0A004D32390020746F6F53
:100B8000206C6F6E6720657874727573696F6E2064
:100B900070726576656E7465640A0020636F6C64BC
:100BA00020657874727573696F6E207072657665F2
:100BB0006E7465640A00627573793A2070617573AA
:100BC000656420666F7220696E7075740A006275C4
:100BD00073793A2070617573656420666F72207551
:100BE0007365720A00627573793A2070726F63657B
:100BF0007373696E670A004B494C4C45442E2000C4
:100C00004B494C4C20636175736564206279207494
:100C10006F6F206D75636820696E616374697665B6
:100C20002074696D65202D2063757272656E742065
:100C3000636F6D6D616E643A2000506C6561736521
:100C4000207265736574005052494E5445522048D5
:100C5000414C544544005072696E7465722068615D
:100C60006C7465642E206B696C6C28292063616C40
:100C70006C6564210A000000000000000000000014
:100C800000000000A0410000A041000080400000E2
:100C900000005761726E696E673A20486F6D696E29
:100CA000672042756D702044697669736F72203CCD
:100CB00020310A000202040000A0400000A0400011
:100CC00000004000006B4300006B4300007A43FFCC
:100CD000FFFF4D333100534420726561642065721B
:100CE000726F720A00446F6E65207072696E74696B
:100CF0006E672066696C650A004B494C4C45442E72
:100D0000200053544F505045442E20005072696EBD
:100D10007465722073746F707065642064756520EB
:100D2000746F206572726F72732E2046697820741A
:100D30006865206572726F7220616E6420757365DC
:100D4000204D39393920746F207265737461727463
:100D50002E202854656D7065726174757265206906
:100D6000732072657365742E205365742069742036
:100D700061667465722072657374617274696E67FE
:100D8000290A004E6F20436865636B73756D207789
:100D9000697468206C696E65206E756D6265722C71
:100DA000204C617374204C696E653A20004E6F20B0
:100DB000436865636B73756D2077697468206C692F
:100DC0006E65206E756D6265722C204C61737420A7
:100DD0004C696E653A2000636865636B73756D20BE
:100DE0006D69736D617463682C204C617374204C61
:100DF000696E653A20004C696E65204E756D6265BE
:100E000072206973206E6F74204C617374204C697A
:100E10006E65204E756D6265722B312C204C6173AE
:100E200074204C696E653A20004D3131300024F455
:100E3000D43050C38E20C2A24017828B7011127A18
:100E4000910D816CD90AA861E108C7586607615104
:100E500043061E4B5D05C145A7041A411104093D17
:100E60009803713931034036DB0265339102D43087
:100E70005402802E1D02632CEE01752AC501B02894
:100E8000A001102781018F2564012B244B01E02252
:100E90003401AC211F018D200D01801FFC00841E38
:100EA000ED00971DDF00B81CD200E61BC600201B1A
:100EB000BC00641AB200B219A8000A19A0006A188E
:100EC0009900D117910040178B00B5168400311698
:100ED0007E00B31579003A157300C7146F005814DB
:100EE0006A00EE1366008813630025135E00C712C4
:100EF0005B006C12570015125400C11151007011A3
:100F00004F0021114B00D61049008D1047004610AC
:100F1000440002104200C00F4000800F3E00420F0C
:100F20003C00060F3B00CB0E3800930E37005C0EE2
:100F30003500270E3400F30D3200C10D3100900D45
:100F40003000600D2E00320D2D00050D2C00D90C47
:100F50002B00AE0C2900850C29005C0C2700350CF9
:100F600027000E0C2600E80B2400C40B2400A00B65
:100F700023007D0B23005A0B2100390B2100180B95
:100F80002000F80A1F00D90A1E00BB0A1E009D0A95
:100F90001D00800A1D00630A1C00470A1B002C0A62
:100FA0001B00110A1A00F7091A00DD091900C4090B
:100FB0001900AB091900920917007B091800630991
:100FC00017004C09160036091600200916000A09F8
:100FD0001500F5081500E0081400CC081400B80846
:100FE0001400A4081400900813007D0812006B0878
:100FF0001300580812004608120034081100230894
:1010000011001208110001081100F0071000E0079C
:101010001000D0071000C0071000B0070F00A10794
:10102000100091070E0083070F0074070F0065077B
:101030000E0057070E0049070E003B070D002E0754
:101040000E0020070D0013070D0006070D00F9061E
:101050000C00ED060D00E0060C00D4060C00C806DE
:101060000C00BC060C00B0060C00A4060B00990690
:101070000C008D060B0082060B0077060B006C0639
:101080000B0061060A0057060B004C060A004206D8
:101090000A0038060A002E060A0024060A001A066C
:1010A0000A001006090007060A00FD050900F405FC
:1010B0000900EB050900E2050900D9050900D00582
:1010C0000900C7050900BE050900B5050800AD0502
:1010D0000800A50509009C050800940508008C057A
:1010E0000800840508007C050800740508006C05EC
:1010F0000700650508005D050700560508004E0558
:1011000007004705070040050800380507003105BE
:1011100007002A050700230507001C050600160521
:1011200007000F0507000805060002050700FB047D
:101130000600F5040700EE040600E8040600E204D9
:101140000700DB040600D5040600CF040600C9042E
:101150000600C3040600BD040600B7040600B1047F
:101160000500AC040600A6040600A00405009B04CC
:10117000060095040500900406008A040500850415
:101180000500800406007A0405007504050070045B
:1011900005006B04050066040500610405005C049D
:1011A000050057040500520405004D0405004804DD
:1011B0000500430405003E0404003A04050035041C
:1011C0000500300404002C04050027040400230457
:1011D00005001E0404001A0404001604050011048E
:1011E00004000D04040009040500040404000004C4
:1011F0000400FC030400F8030400F4030400F003FB
:101200000400EC030400E8030400E4030400E0032A
:101210000400DC030400D8030400D4030400D0035A
:101220000400CC030400C8030300C503030024F436
:1012300004D9201BC40C5C0E9804C4095F02650726
:101240007101F405F900FB04B30048048700C103F1
:1012500069005803550003034500BE023A008402AA
:10126000310053022A002902250004022000E40173
:101270001C00C8011900AF01170098011400840177
:101280001300710110006101100051010E004301B3
:101290000D0036010B002B010B0020010B00150186
:1012A00009000C01090003010800FB000800F3001D
:1012B0000800EB000700E4000600DE000600D8008E
:1012C0000600D2000600CC000500C7000500C200E1
:1012D0000500BD000400B9000400B5000400B10021
:1012E0000400AD000400A9000400A5000300A20052
:1012F00003009F0004009B0003009800030095007A
:10130000020093000300900003008D0002008B0098
:1013100003008800020086000200840003008100B0
:1013200002007F0002007D0002007B0002007900C5
:1013300002007700010076000200740002007200D3
:101340000100710002006F0002006D0001006C00DE
:1013500002006A00010069000200670001006600E7
:1013600001006500010064000200620001006100EC
:101370000100600001005F0002005D0001005C00F0
:1013800001005B0001005A000100590001005800F3
:1013900001005700010056000100550001005400F3
:1013A00001005300000053000100520001005100F1
:1013B0000100500001004F0001004E0000004E00EF
:1013C00001004D0001004C0001004B0000004B00EB
:1013D00001004A00010049000100480000004800E7
:1013E00001004700010046000000460001004500E2
:1013F00000004500010044000100430000004300DC
:1014000001004200000042000100410000004100D4
:101410000100400001003F0000003F0001003E00CD
:1014200000003E0001003D0000003D0001003C00C6
:1014300000003C0000003C0001003B0000003B00BD
:1014400001003A0000003A000100390000003900B4
:1014500001003800000038000000380001003700AB
:1014600000003700010036000000360000003600A2
:101470000100350000003500000035000100340097
:10148000000034000000340001003300000033008D
:101490000000330001003200000032000000320082
:1014A0000100310000003100000031000100300077
:1014B000000030000000300001002F0000002F006D
:1014C00000002F0000002F0001002E0000002E0061
:1014D00000002E0001002D0000002D0000002D0056
:1014E00000002D0001002C0000002C0000002C004A
:1014F00000002C0001002B0000002B0000002B003E
:1015000000002B0001002A0000002A0000002A0031
:1015100000002A0001002900000029000000290025
:101520000000290000002900010028000000280018
:10153000000028000000280000002800010027000B
:1015400000002700000027000000270000002700FF
:1015500001002600000026000000260000002600F2
:1015600000002600010025000000250000002500E5
:1015700000002500000025000000250001002400D7
:1015800000002400000024000000240000002400CB
:1015900001002300000023000000230000002300BE
:1015A00000002300000023000000230001002200AF
:1015B00000002200000022000000220000002200A3
:1015C0000000220001002100000021000000210095
:1015D0000000210000002100000021000000210087
:1015E000010020000000200000002000000020007A
:1015F000000020000000200000002000000020006B
:1016000001001F0000001F0000001F0000001F005D
:1016100000001F0000001F0000001F0001001E004E
:1016200000001E0000001E0000001E000000043725
:1016300000001E290000511B000058100000100976
:101640000000CC0400007802000041010000626547
:10165000640A002C2073797374656D2073746F7045
:1016600070656421204865617465725F49443A2061
:101670000050726F62696E67206661696C65640A0A
:101680000050726F62696E67206661696C65640004
:10169000205A3A200020593A200042656420583AE6
:1016A000200053442063617264206F6B0A006F70E6
:1016B000656E526F6F74206661696C65640A0076AE
:1016C0006F6C756D652E696E6974206661696C65F5
:1016D000640A00534420696E6974206661696C0A6B
:1016E00000486F6D65202573257325732066697228
:1016F0007374002066697273740A005A00590058A6
:1017000000486F6D65200057726974696E672074B8
:101710006F2066696C653A20006F70656E206661A7
:10172000696C65642C2046696C653A20006F7065B1
:101730006E206661696C65642C2046696C653A2090
:101740000046696C652073656C65637465640A00A6
:101750002053697A653A200046696C65206F706590
:101760006E65643A20002066696C653A2000646FFB
:10177000696E67006672657368004E6F772000457A
:101780004E4420535542524F5554494E450A00226B
:1017900020706F73002220706172656E743A2200AF
:1017A000535542524F5554494E452043414C4C20CD
:1017B0007461726765743A22004B494C4C45442E63
:1017C0002000747279696E6720746F2063616C6C9D
:1017D000207375622D67636F64652066696C65733D
:1017E000207769746820746F6F206D616E79206C4A
:1017F0006576656C732E204D4158206C6576656C5E
:101800002069733A0000060900FE00000000000194
:10181000090008FE000005080806000040F0C8881E
:1018200088987810050808060000C0F8888888881D
:1018300088F80505050600012030F8302005080865
:101840000600002070F820202020E005090906008D
:10185000FF2070A8A8B8888870200509090600FF35
:10186000E080C0B0A8283028280509090600FFF844
:10187000A88888888888A8F8050A0A0600FE2050EB
:1018800050505088A8A8887003030306000340A0A6
:101890004025753A2530327500253032753A2530AD
:1018A00032750025756420253032753A2530327541
:1018B00000202020202020005A0059002020202035
:1018C0000058000920000000000000000000000097
:1018D0000000003FFFF000000000000000000000DA
:1018E0000000003800700000000000000000000050
:1018F00000000030FC30000000000000000000008C
:1019000000000020FC1000000000000000000000AB
:10191000000000207810000000000000000000001F
:101920000000002030100000000000000000000057
:101930000000002C00D0F80180000C1FE00000081F
:101940002080002E31D048008000123FF0000004BB
:101950001040002F7BD043C38CD0023FF000000426
:101960001040002F7BD071249267CC3FF00000081C
:101970002080002E31D041249E40021FE000001044
:101980004100002C00D049249040121FE0000020AC
:10199000820000203010FBB3CEE00C3FF0000020AE
:1019A00082000020781000000000003FF0000010CE
:1019B00041000020FC1000000000003FF000000883
:1019C00020800030FC3000000000000FC00000004C
:1019D000000000380070000000000007800000FFD9
:1019E000FFC0003FFFF0000000000003000000FF08
:1019F000FFC0000000000000000000000000000028
:101A00000000003FFFF000000000000000000000A8
:101A1000000000380070000000000000000000001E
:101A200000000033873000000000000000000000CC
:101A30000000002787900000000000000000000068
:101A40000000002F87D00000000000000000000010
:101A50000000002F87D00000000000000000000000
:101A60000000002F03D0F80180000C1FE0000008E8
:101A700020800020301048008000123FF000000459
:101A800010400020781043C38CD0023FF0000004C7
:101A900010400020781071249267CC3FF0000008BD
:101AA00020800020301041249E40021FE0000010E2
:101AB0004100002F03D049249040121FE000002075
:101AC0008200002F87D0FBB3CEE00C3FF000002057
:101AD0008200002F87D000000000003FF0000010BF
:101AE00041000027879000000000003FF000000840
:101AF00020800033873000000000000FC00000008D
:101B0000000000380070000000000007800000FFA7
:101B1000FFC0003FFFF0000000000003000000FFD6
:101B2000FFC0000000004265642068656174696E52
:101B300067206661696C65640048656174696E67F9
:101B4000206661696C65640045312048656174698F
:101B50006E67206661696C65640048656174696ED2
:101B600067206661696C65640070012C0190012733
:101B700001B0012201C0011D01F001180110021382
:101B80000130020E016002090190020401C002FF4F
:101B9000000003FA004003F5008003F000D003EBDF
:101BA000002004E6007004E100E004DC004005D7FA
:101BB00000C005D2004006CD00D006C8008007C393
:101BC000003008BE00F008B900C009B400B00AAF88
:101BD00000B00BAA00D00CA500000EA000500F9B77
:101BE00000C01096005012910000148C00C01587A0
:101BF00000B0178200B0197D00D01B7800001E7362
:101C00000040206E0090226900F024640040275FAD
:101C10000090295A00E02B5500102E500020304B28
:101C20000010324600E033410090353C0010373759
:101C30000070383200A0392D00B03A2800A03B23B4
:101C400000603C1E00103D1900903D1400103E0F36
:101C500000703E0A00C03E0500003F0000403FFB10
:101C6000FF803FF6FFC03FF1FF4531205448455209
:101C70004D414C2052554E41574159004245442058
:101C8000544845524D414C2052554E415741590000
:101C9000546865726D616C2052756E617761790070
:101CA0004531204572723A204D415854454D5000FF
:101CB0004572723A204D415854454D50204245449A
:101CC000004D415854454D502074726967676572E4
:101CD0006564004531204572723A204D494E5445A5
:101CE0004D50004572723A204D494E54454D50209A
:101CF000424544004D494E54454D50207472696729
:101D00006765726564004D383420582059205A2088
:101D10004500202F002042403A0020403A000A0AA5
:101D2000426564204C6576656C20436F7272656312
:101D300074696F6E204D61747269783A00202B00CF
:101D40000A436F727265637465642042656420485B
:101D500065696768742076732E2042656420546F2D
:101D6000706F6C6F67793A0A00202B000A42656435
:101D70002048656967687420546F706F677261707E
:101D800068793A0A2020202B2D2D2D204241434BEB
:101D9000202D2D2B0A2020207C20202020202020D8
:101DA000202020207C0A204C207C20202020282B52
:101DB00029202020207C20520A2045207C20202021
:101DC00020202020202020207C20490A2046207C22
:101DD00020282D29204E20282B29207C20470A202E
:101DE00054207C20202020202020202020207C2007
:101DF000480A2020207C20202020282D2920202057
:101E0000207C20540A2020207C20202020202020FC
:101E1000202020207C0A2020204F2D2D2046524FAC
:101E20004E54202D2D2B0A2028302C30290A004D0D
:101E300065616E206F662073616D706C65642070E3
:101E40006F696E74733A200020643A200020623A71
:101E5000200045716E20636F656666696369656E13
:101E600074733A20613A2000202844525952554E4A
:101E70002900473239204175746F20426564204C37
:101E80006576656C696E67003F20284C2C522C46A5
:101E90002C4229206F7574206F6620626F756E6406
:101EA000732E0A003F50726F626520706F696E7406
:101EB000732028592920697320696D706C617573CE
:101EC00069626C652028322D33292E0A003F50723A
:101ED0006F626520706F696E7473202858292069BD
:101EE0007320696D706C61757369626C652028324E
:101EF0002D33292E0A003F2856296572626F7365BB
:101F0000206C6576656C20697320696D706C6175F5
:101F10007369626C652028302D34292E0A005072B6
:101F20006F7465637465642050696E0A0020573AC7
:101F3000004520436F6F6C696E672E2E2E00452082
:101F400048656174696E672E2E2E00435020456EE1
:101F50006465722D332052656164792E0050726978
:101F60006E74696E672E2E2E005072696E7420702A
:101F70006175736564004D313036205025692053FA
:101F80002569004D31303920532569004D313930F4
:101F900020532569004D3432302053300A473238FF
:101FA000205230205820590053746F70207072698D
:101FB0006E7400526573756D65207072696E740081
:101FC000506F7765722D4C6F7373205265636F7617
:101FD00065727900436D643A2053746F7700436DE6
:101FE000643A204465706C6F7900436D643A205305
:101FF000656C662D5465737400436D643A205357C5
:102000002D4D6F646500436D643A205265736574AD
:10201000004D61696E005072696E742061626F726A
:1020200074656400496E69742E20534420636172A4
:1020300064004D3231004E6F20534420636172645E
:10204000004368616E6765205344206361726400D9
:102050004D3231005072696E742066726F6D20537C
:10206000440053746F70207072696E74005265730F
:10207000756D65207072696E740041626F757420B1
:102080005072696E7465720050617573652070726C
:10209000696E7400436F6E74726F6C00507265707D
:1020A0006172650054756E6500496E666F207363DA
:1020B0007265656E004261627973746570205A00C2
:1020C0004261627973746570205A00466C6F7700C4
:1020D000466C6F770046616E2073706565640046DC
:1020E000616E2073706565640042656400426564DA
:1020F000004E6F7A7A6C65004E6F7A7A6C65005389
:1021000070656564005370656564004D61696E00BB
:102110004D61782054656D703A20313235004D693B
:102120006E2054656D703A203500544265643A451E
:1021300050434F53203130304B004D61782054656F
:102140006D703A20323735004D696E2054656D70E0
:102150003A20350054303A204550434F5320313017
:10216000304B005053553A2047656E6572696300E5
:1021700050726F746F636F6C3A20312E3000426181
:1021800075643A20313135323030004D656C7A69F2
:102190002028437265616C69747929004C696E6509
:1021A0006172204C6576656C696E67004578747263
:1021B00075646572733A203100687474703A2F2F19
:1021C0006D61726C696E66772E6F72670043502086
:1021D000456E6465722D3300323031382D30382D24
:1021E000303100312E312E39004D61726C696E0034
:1021F000546865726D6973746F727300426F6172B7
:102200006420496E666F005072696E746572204971
:102210006E666F004D61696E0020746F6F206C6F89
:102220006E6720657874727573696F6E2070726561
:1022300076656E7465640A0020636F6C642065784F
:1022400074727573696F6E2070726576656E7465F1
:10225000640A0020573A0042656420636F6F6C691E
:102260006E672E2E2E004265642068656174696E6B
:10227000672E2E2E00205A3A0020593A0020436F34
:10228000756E7420583A0020453A00205A3A0020D2
:10229000593A00583A003A004361703A00205A0017
:1022A000205900580020204D61783A2000205A0023
:1022B000205900580020204D696E3A20004F6E20B2
:1022C000004F666600536F667420656E6473746FAA
:1022D00070733A200020643A0020693A0020703A76
:1022E00000496E76616C6964206578747275646506
:1022F000720A0023646566696E652044454641554F
:102300004C545F4B64200023646566696E6520440D
:10231000454641554C545F4B69200023646566690E
:102320006E652044454641554C545F4B702000502B
:102330004944204175746F74756E652066696E69D5
:1023400073686564212050757420746865206C6121
:102350007374204B702C204B6920616E64204B6499
:1023600020636F6E7374616E74732066726F6D207C
:1023700062656C6F7720696E746F20436F6E66695B
:102380006775726174696F6E2E680A005049442047
:102390004175746F74756E65206661696C65642142
:1023A0002074696D656F75740A0045312054484585
:1023B000524D414C2052554E415741590054686589
:1023C000726D616C2052756E6177617900453120C4
:1023D00048656174696E67206661696C6564004870
:1023E000656174696E67206661696C656400504957
:1023F00044204175746F74756E65206661696C6503
:1024000064212054656D7065726174757265207405
:102410006F6F20686967680A00204B643A200020CB
:102420004B693A2000204B703A20000A20436C612F
:102430007373696320504944200A002054753A2080
:1024400000204B753A2000206D61783A2000206D05
:10245000696E3A200020643A200020626961733A74
:102460002000504944204175746F74756E65206674
:1024700061696C6564212054656D70657261747565
:10248000726520746F6F20686967680A005049445C
:10249000204175746F74756E652073746172740A6F
:1024A00000504944204175746F74756E65206661F3
:1024B000696C65642120426164206578747275647A
:1024C0006572206E756D6265720A00426564204C0B
:1024D0006576656C696E6720004661696C6564208D
:1024E000746F20656E61626C6520426564204C6586
:1024F00076656C696E670A00426564204C65766596
:102500006C20436F7272656374696F6E204D6174E5
:102510007269783A004F66667365747320617070F3
:102520006C696564004572723A20546F6F20666171
:10253000722100546F6F206661722066726F6D2089
:102540007265666572656E636520706F696E740A88
:102550000043616E6E6F74206F70656E20737562DC
:1025600064697220006563686F3A0046696C652093
:1025700064656C657465643A0044656C6574696F84
:102580006E206661696C65642C2046696C653A2032
:10259000006F70656E206661696C65642C20466909
:1025A0006C653A20004572726F723A004578747219
:1025B00075646572004D6F7665205A004D6F7665C3
:1025C0002059004D6F766520580050726570617219
:1025D00065004C6F61642073657474696E67730085
:1025E000526573746F7265206661696C73616665AC
:1025F0000053746F72652073657474696E6773003D
:10260000424C546F7563680046696C616D656E7409
:10261000004D6F74696F6E0054656D706572617402
:10262000757265004D61696E004D33303320553150
:10263000204525692053256900504944204175747F
:102640006F74756E6500504944204175746F7475E0
:102650006E65005049442D44005049442D440050BB
:1026600049442D49005049442D49005049442D50BA
:10267000005049442D50002008204661637400201A
:10268000082046616374002008204D61780020080E
:10269000204D6178002008204D696E002008204DF3
:1026A000696E004F6666004F6E20004175746F744E
:1026B000656D700046616E207370656564004661EB
:1026C0006E20737065656400426564004265640055
:1026D0004E6F7A7A6C65004E6F7A7A6C6500436F44
:1026E0006E74726F6C00454550524F4D206461749A
:1026F0006173697A65206572726F722E0A00290A09
:10270000002062797465733B206372632000536517
:102710007474696E67732053746F72656420280047
:10272000290A002062797465733B2063726320007C
:102730002073746F7265642073657474696E677357
:1027400020726574726965766564202800202863AC
:10275000616C63756C6174656429210A0020213DF8
:102760002000454550524F4D20435243206D697320
:102770006D61746368202D202873746F72656429FD
:1027800020002053697A653A2000496E6465783AE2
:102790002000204D61726C696E3D563536290A0065
:1027A00028454550524F4D3D00454550524F4D2014
:1027B00076657273696F6E206D69736D617463689D
:1027C0002000656E7175657565696E672022002051
:1027D000496E76616C69642065787472756465729F
:1027E00020000000000000000000000000000000C9
:1027F0006B4300006B4300007A437C3C3E5E2B3D04
:102800003F2F5B5D3B2C2A225C005072656865613E
:102810007420504C4120456E6400507265686561BB
:102820007420504C412042656400507265686561B7
:102830007420504C41005072657061726500507296
:1028400065686561742041425320456E6400507292
:10285000656865617420414253204265640050728E
:102860006568656174204142530050726570617201
:102870006500436D643A205265736574004D3238CB
:1028800030205030205331363000436D643A2053AD
:10289000656C662D54657374004D323830205030AD
:1028A00020533132300050726568656174204142B6
:1028B00053005072656865617420504C4100436F4D
:1028C0006F6C646F776E0044697361626C6520732E
:1028D00074657070657273004D3834004175746FA3
:1028E00020686F6D6500473238004D6F7665206156
:1028F000786973004D61696E004D6F7665205800F0
:102900004D6F76652059004D6F7665205A004578E9
:10291000747275646572004D6F766520302E316D6E
:102920006D004D6F766520316D6D004D6F766520C1
:1029300031306D6D004D6F766520617869730045AB
:1029400078747275646572004D6F7665205A004D1B
:102950006F76652059004D6F766520580000060996
:1029600000FE0701920321207FFF07FF07FF000001
:1029700000060000010707060200808080808000BA
:1029800080030202060105A0A0050707060000500B
:1029900050F850F850500507070600002078A07046
:1029A00028F020050707060000C0C810204098182E
:1029B0000507070600006090A040A8906802030386
:1029C000060104C040800307070601002040808004
:1029D000804020030707060100804020202040801F
:1029E00005050506000120A870A8200505050600BC
:1029F000012020F820200203030602FFC0408005CA
:102A00000101060003F8020202060200C0C005052B
:102A10000506000108102040800507070600007029
:102A200088888888887003070706010040C04040F6
:102A30004040E0050707060000708808708080F8B5
:102A4000050707060000F81020100808F005070722
:102A500006000010305090F810100507070600001F
:102A6000F880F0080888700507070600007080806D
:102A7000F0888870050707060000F808102020205D
:102A80002005070706000070888870888870050791
:102A9000070600007088887808087002050506029D
:102AA00000C0C000C0C00206060602FFC0C000C0D1
:102AB00040800407070600001020408040201005D9
:102AC0000303060002F800F804070706010080402F
:102AD000201020408005070706000070880810209D
:102AE000002005070706000070880868A8A8700580
:102AF0000707060000708888F88888880507070699
:102B00000000F08888F08888F0050707060000704C
:102B1000888080808870050707060000F088888814
:102B20008888F0050707060000F88080F08080F8AC
:102B3000050707060000F88080F080808005070701
:102B4000060000708880B8888870050707060000B6
:102B5000888888F8888888010707060200808080B6
:102B60008080808005070706000038101010109044
:102B7000600507070600008890A0C0A090880507A0
:102B800007060000808080808080F8050707060027
:102B90000088D8A8888888880507070600008888E4
:102BA000C8A8988888050707060000708888888864
:102BB0008870050707060000F08888F0808080058F
:102BC000070706000070888888A890680507070630
:102BD0000000F08888F0A0908805070706000078BC
:102BE0008080700808F0050707060000F820202004
:102BF00020202005070706000088888888888870BC
:102C00000507070600008888888888502005070780
:102C10000600008888888888A850050707060000F5
:102C20008888502050888805070706000088888813
:102C300050202020050707060000F80810204080DB
:102C4000F8030707060100E08080808080E005052A
:102C5000050600018040201008030707060100E078
:102C60002020202020E005030306000420508805D2
:102C70000101060000F80202020602058040050577
:102C800005060000700878887805070706000080B0
:102C900080B0C88888F0050505060000708080882F
:102CA00070050707060000080868988888780505F9
:102CB000050600007088F8807005070706000030E0
:102CC00048E0404040400506060600FF70888878CE
:102CD00008700507070600008080B0C88888880152
:102CE00007070602008000808080808003080806B5
:102CF00001FF200020202020A0400407070600003C
:102D0000808090A0C0A090030707060100C040404B
:102D1000404040E0050505060000D0A8A8A8A80589
:102D20000505060000B0C88888880505050600006E
:102D300070888888700506060600FFF08888F08095
:102D4000800506060600FF788888780808050505CE
:102D5000060000B0C8808080050505060000708070
:102D60007008F00407070600004040E04040403093
:102D70000505050600008888889868050505060091
:102D80000088888850200505050600008888A8A8C6
:102D900050050505060000885020508805060606E7
:102DA00000FF888888780870050505060000F8107F
:102DB0002040F803070706010020404080404020E3
:102DC000010707060200808080808080800307075B
:102DD00006010080404020404080050202060002BB
:102DE0006890000000060000000021002400270079
:102DF0002A0000002200250028002B0000002000EF
:102E00002300260029000202020202020202040438
:102E10000404040404040303030303030303010180
:102E2000010101010101010204081020408001029A
:102E300004081020408001020408102040808040D7
:102E4000201008040201000000010200090A00002D
:102E5000000004030807000000000000000000005C
:102E60000000000000004D3234004D323320257345
:102E700000556E6B6E6F776E20636F6D6D616E6463
:102E80003A2022006F70656E206661696C65642C63
:102E90002046696C653A20004572726F7220777225
:102EA0006974696E6720746F20454550524F4D21FB
:102EB0000A0048617264636F6465642044656661FA
:102EC000756C742053657474696E6773204C6F6100
:102ED0006465640A00F4010000F40100006400006D
:102EE00000881300000000FA430000FA430000A02D
:102EF000400000C8420000A0420000A0420000C8FC
:102F00004300006442486F6D696E67206661696CBA
:102F1000656400545249474745524544006F706507
:102F20006E003A20007A5F6D696E00795F6D696EA0
:102F300000785F6D696E005265706F7274696E67BC
:102F400020656E6473746F70207374617475730A96
:102F50000050726F6265205A204F66667365740078
:102F600050726F6265205A204F6666736574004325
:102F70006F6E74726F6C0046696C2E204469612E0E
:102F80000046696C2E204469612E004F6666004F32
:102F90006E20004520696E206D6D3300436F6E74A6
:102FA000726F6C0043616E6E6F7420656E74657233
:102FB000207375626469723A2000022E2E0001525D
:102FC000656672657368004D61696E005265736570
:102FD0006E643A20006F6B008FEA72E911241FBE05
:102FE000CFEFD0E4DEBFCDBF12E0A0E0B1E0E8E576
:102FF000F9EF01E00BBF02C007900D92A436B107B4
:10300000D9F72AE1A4E6B2E001C01D92A639B207C1
:10301000E1F717E1CDEED7E104C02197FE010E9450
:10302000F8F8CC3ED107C9F70E9460E20C949FFCEF
:103030000C9400002F923F924F925F926F927F927A
:103040008F929F92AF92BF92CF92DF92EF92FF92B8
:103050000F931F93CF93DF93CDB7DEB7CB56D10934
:103060000FB6F894DEBF0FBECDBF21E02093EB0872
:103070008091CF198D3409F4F2C7843511F40C9482
:103080001A2D873411F00C94662D2090CD193090B4
:10309000CE193CE12316310409F42EC694F454E011
:1030A0002516310444F482E0281631040CF03EC0A9
:1030B00037FE35C0D0C794E02916310409F4DEC5C7
:1030C000CAC7AAE52A16310409F406C75CF4EDE183
:1030D0002E16310409F427C6FEE12F16310409F437
:1030E00026C6B9C73BE52316310409F4F9C64CE5F9
:1030F0002416310409F0AFC7FDE52F2EF1E03F2E75
:10310000A9EFEA2EA8E0FA2E86EE9EE099AF88AFEE
:10311000B6EDCB2EBEE0DB2E00E010E020C78091A4
:10312000150181110C946D2D0C94682D8091150161
:10313000882311F40C94682D0E9413B182E50E943B
:1031400006B1882309F44CC10E948AB04B015C018E
:1031500020E030E0A9010E940BF2882309F470C13D
:103160008091E60E9091E70EA091E80EB091E90EE5
:1031700088AF99AFAAAFBBAF2091EA0E3091EB0EAA
:103180004091EC0E5091ED0E2CAF3DAF4EAF5FAFC6
:103190008091050990910609A0910709B09108094D
:1031A00024968CAF9DAFAEAFBFAF24972091090995
:1031B00030910A0940910B0950910C0928962CAFC7
:1031C0003DAF4EAF5FAF28979C01AD0168AD79ADC3
:1031D0008AAD9BAD0E940BF281110FC028962CADD9
:1031E0003DAD4EAD5FAD28976CAD7DAD8EAD9FAD65
:1031F0000E940BF2882309F423C111E032E0231668
:10320000310409F010E020E030E0A901C501B4016B
:103210000E940BF2881F8827881F181759F080E03A
:1032200090E0A0E8BFEB64968CAF9DAFAEAFBFAFB0
:1032300064970AC020E030E040E85FE364962CAF7A
:103240003DAF4EAF5FAF649728AD39AD4AAD5BADD2
:1032500024966CAD7DAD8EAD9FAD24970E9401F993
:1032600060966CAF7DAF8EAF9FAF60972CAD3DADDC
:103270004EAD5FAD28966CAD7DAD8EAD9FAD289700
:103280000E9401F96B017C0160962CAD3DAD4EAD05
:103290005FAD6097CA01B9010E9471F22B013C0138
:1032A000A7019601C701B6010E9471F29B01AC0112
:1032B000C301B2010E9402F90E94B0FB2C966CAFD0
:1032C0007DAF8EAF9FAF2C9720E030E040E05FE312
:1032D0000E9471F22B013C01A5019401C501B401CA
:1032E0000E9471F24B015C01A3019201C301B20182
:1032F0000E9471F29B01AC01C501B4010E9401F969
:103300000E94B0FB64962CAD3DAD4EAD5FAD6497B1
:103310000E9471F24B015C01C701B60190582C96D6
:103320002CAD3DAD4EAD5FAD2C970E94FCF9A501D3
:1033300094010E9471F26B017C0124962CAD3DAD8D
:103340004EAD5FAD249768AD79AD8AAD9BAD0E945F
:1033500002F920E030E040E05FE30E9471F29B015F
:10336000AC01C701B6010E9402F928AD39AD4AADE2
:103370005BAD0E9401F96B017C0128962CAD3DAD3F
:103380004EAD5FAD28976CAD7DAD8EAD9FAD0E940B
:1033900002F920E030E040E05FE30E9471F22B018F
:1033A0003C012C962CAD3DAD4EAD5FAD2C9760969B
:1033B0006CAD7DAD8EAD9FAD60970E94FCF9A5010F
:1033C00094010E9471F29B01AC01C301B2010E9401
:1033D00002F92CAD3DAD4EAD5FAD0E9401F914C0B8
:1033E00089E40E9406B1882329F00E948AB06B010B
:1033F0007C0103C0C12CD12C76018AE40E9406B165
:10340000882309F10E948AB024966CAF7DAF8EAFFD
:103410009FAF249720E030E0A901C701B6010E94C8
:103420000BF281111FC020E030E0A90124966CADA1
:103430007DAD8EAD9FAD24970E940BF2811112C01D
:10344000E5EAF5E207C420E030E0A901C701B601D2
:103450000E940BF28823A1F324961CAE1DAE1EAE73
:103460001FAE2497D701C601B05888AF99AFAAAF55
:10347000BBAF24962CAD3DAD4EAD5FAD24975058FB
:103480002CAF3DAF4EAF5FAF9C01AD01BC01CD0194
:103490000E9471F24B015C012CAD3DAD4EAD5FADB4
:1034A000CA01B9010E9471F29B01AC01C501B401CE
:1034B0000E9402F90E94B0FBA0966CAF7DAF8EAF68
:1034C0009FAFA0978091E60E9091E70EA091E80E35
:1034D000B091E90E28968CAF9DAFAEAFBFAF2897E5
:1034E000A7019601BC01CD010E9402F964966CAF60
:1034F0007DAF8EAF9FAF64972091EA0E3091EB0EB7
:103500004091EC0E5091ED0E60962CAF3DAF4EAF5A
:103510005FAF609724966CAD7DAD8EAD9FAD249767
:103520000E9402F9A4966CAF7DAF8EAF9FAFA497B7
:103530008091050990910609A0910709B0910809A9
:1035400068968CAF9DAFAEAFBFAF689764962CAD59
:103550003DAD4EAD5FAD6497BC01CD010E9401F958
:103560006B017C012091090930910A0940910B09F6
:1035700050910C096C962CAF3DAF4EAF5FAF6C977E
:10358000A4962CAD3DAD4EAD5FADA4976C966CADE1
:103590007DAD8EAD9FAD6C970E9401F94B015C0132
:1035A0008091EE0E9091EF0EA091F00EB091F10E81
:1035B000A8968CAF9DAFAEAFBFAFA8979C01AD01F1
:1035C00060910D0970910E0980910F099091100979
:1035D0000E9401F92C966CAF7DAF8EAF9FAF2C97F8
:1035E000A701960168AD79AD8AAD9BAD0E9471F2DD
:1035F0002B013C01A50194016CAD7DAD8EAD9FAD5D
:103600000E9471F29B01AC01C301B2010E9402F958
:103610002B013C01A501940168AD79AD8AAD9BAD4C
:103620000E9471F24B015C01A70196016CAD7DAD6A
:103630008EAD9FAD0E9471F29B01AC01C501B4013A
:103640000E9401F9A30192010E9481F96B017C01A2
:1036500020E030E0A9010E940BF287FF0AC02BEDA9
:103660003FE049EC50E4C701B6010E9402F96B014A
:103670007C0192E02916310451F42BED3FE049EC36
:1036800050E4C701B6010E9401F96B017C0120E002
:1036900030E0A901C701B6010E940BF2811128C0D8
:1036A00068962CAD3DAD4EAD5FAD689728966CAD7C
:1036B0007DAD8EAD9FAD28970E940BF2811118C091
:1036C0006C962CAD3DAD4EAD5FAD6C9760966CAD1C
:1036D0007DAD8EAD9FAD60970E940BF2811108C049
:1036E0008BEDC82E8FE0D82E89ECE82E80E4F82EE2
:1036F000A7019601A0966CAD7DAD8EAD9FADA09754
:103700000E9471F24B015C0120E030E0A9012C968F
:103710006CAD7DAD8EAD9FAD2C970E940BF28823D2
:10372000E9F0A5019401C501B4010E9471F24B01B9
:103730005C012C962CAD3DAD4EAD5FAD2C97CA0112
:10374000B9010E9471F29B01AC01C501B4010E9454
:1037500002F90E94B0FB4B015C010DC020E030E09B
:10376000A901C501B4010E9462FB87FF04C0B7FA3A
:10377000B094B7F8B0942FE632E143E85AE3C501BC
:10378000B4010E940BF287FF02C00C94682DC501A2
:10379000B4010E94A4FA0E9475FA2E967FAF6EAF14
:1037A0002E97DB01AB2B31F4E1E0F0E02E96FFAF7A
:1037B000EEAF2E974090F20E5090F30E6090F40E04
:1037C0007090F50E2E962EAD3FAD2E97B90180E08C
:1037D00090E00E9410F24B015C019B01AC01C7011B
:1037E000B6010E94FCF928966CAF7DAF8EAF9FAFFB
:1037F0002897A50194012C966CAD7DAD8EAD9FAD43
:103800002C970E94FCF9A0966CAF7DAF8EAF9FAF56
:10381000A097A30192016091110970911209809102
:103820001309909114090E9401F9A50194010E94C5
:10383000FCF9AC966CAF7DAF8EAF9FAFAC9728967E
:103840002CAD3DAD4EAD5FAD2897CA01B9010E94C8
:1038500071F220E030E040E05FE30E9471F29B01F2
:10386000AC0160E070E080E89FE30E9401F9689697
:103870006CAF7DAF8EAF9FAF6897A8968CAD9DADB6
:10388000AEADBFADA89789879A87AB87BC874D86B9
:103890005E866F86788A6091280170912901072ED3
:1038A000000C880B990B0E9412F220911A013091A2
:1038B0001B0140911C0150911D010E9471F22AE0F0
:1038C00037ED43E25CE30E9471F26CAB7DAB8EABF3
:1038D0009FAB0E940AE29B01AC0128533F4F4F4F20
:1038E0005F4F6C962CAF3DAF4EAF5FAF6C9748AC5F
:1038F00059AC6AAC7BAC22242394312C39E1299653
:103900003FAF29972E964EAD5FAD2E9742155305CA
:1039100009F44CC10E94E15A0E940AE2DC01CB0189
:103920006C962CAD3DAD4EAD5FAD6C97821B930B8D
:10393000A40BB50BB7FD10C00E940AE29B01AC01BD
:1039400028533F4F4F4F5F4F6C962CAF3DAF4EAF5C
:103950005FAF6C970E94893529963FAD299731500A
:1039600029963FAF2997332309F445C02CAD3DADCF
:103970004EAD5FAD68966CAD7DAD8EAD9FAD689779
:103980000E9471F26B017C019201A30128966CAD3B
:103990007DAD8EAD9FAD28970E9471F2A701960173
:1039A0000E9402F97B018C019201A30168966CAD23
:1039B0007DAD8EAD9FAD68970E9471F24B015C01A9
:1039C0002CAD3DAD4EAD5FAD28966CAD7DAD8EADF1
:1039D0009FAD28970E9471F29B01AC01C501B40113
:1039E0000E9401F92B013C01C701D8018CAF9DAFAA
:1039F000AEAFBFAF55C0B10180E090E00E9410F2C1
:103A000028962CAD3DAD4EAD5FAD28970E9471F26A
:103A10004B015C010E94F7F96B017C01C501B40107
:103A20000E94A2FB4B015C01A701960168AD79AD34
:103A30008AAD9BAD0E9471F22B013C01A50194015E
:103A400024966CAD7DAD8EAD9FAD24970E9471F232
:103A5000A30192010E9402F92B013C01A5019401EE
:103A600068AD79AD8AAD9BAD0E9471F24B015C01EE
:103A7000A701960124966CAD7DAD8EAD9FAD2497C8
:103A80000E9471F29B01AC01C501B4010E9401F9D1
:103A90006CAF7DAF8EAF9FAF49E129964FAF2997AD
:103AA0009201A30164966CAD7DAD8EAD9FAD649720
:103AB0000E9402F969837A838B839C832CAD3DAD90
:103AC0004EAD5FADA4966CAD7DAD8EAD9FADA497B0
:103AD0000E9402F96D837E838F839887A0962CAD18
:103AE0003DAD4EAD5FADA09769857A858B859C8590
:103AF0000E9402F969877A878B879C87AC962CADE8
:103B00003DAD4EAD5FADAC976D857E858F85988957
:103B10000E9402F96D877E878F87988B80914B0179
:103B2000882321F0CE0101960E94E02FE090FB1146
:103B30001CA61DA61EA61FA689819A81AB81BC81E9
:103B400088A399A3AAA3BBA38D819E81AF81B885C9
:103B50008CA39DA3AEA3BFA389859A85AB85BC85A5
:103B600088A799A7AAA7BBA7AE01485D5F4FBE0172
:103B70006C5D7F4FCE0180960E9488D3CE018C96DB
:103B80006C018E010C5C1F4F9E01235F3F4FAE0105
:103B9000485D5F4FBE016C5D7F4F0C970E94CC7CEF
:103BA000882321F09FEF291A390AACCEE090FB114F
:103BB00018AA19AA1AAA1BAA8091050990910609A8
:103BC000A0910709B091080988A399A3AAA3BBA350
:103BD0008091090990910A09A0910B09B0910C09F3
:103BE0008CA39DA3AEA3BFA380910D0990910E0954
:103BF000A0910F09B091100988A799A7AAA7BBA700
:103C0000AE01485D5F4FBE016C5D7F4FCE01809677
:103C10000E9488D3DE01D0966D018E010C5C1F4F8F
:103C200021E139E0AE01485D5F4FBE016C5D7F4F21
:103C3000CE0180960E94CC7C80E1E5E0F9E0A6EE22
:103C4000BEE001900D928A95E1F70C94682D0E94D8
:103C50009DB1F80184918F010F5F1F4F8111F7CF44
:103C6000E3ECF2E084918F010F5F1F4F882311F482
:103C70000C94682D0E949DB1F801F4CF80E50E945C
:103C800006B1882329F00E9446B06B017C0103C075
:103C9000C12CD12C760183E50E9406B1882361F006
:103CA0000E948AB020E030E04AE754E40E9471F2BA
:103CB0000E9475FA6B017C010E946F8A809103114A
:103CC000811105C060E089ED92E00E94F5C70E9475
:103CD0000AE2C60ED71EE81EF91E0E940AE2DC01A7
:103CE000CB018C199D09AE09BF09B7FD02C00C9428
:103CF000682D0E948935F1CF8091D50E877087306D
:103D000011F00C94722D8FE40E9406B1882319F0F3
:103D10000E947AB003C08FE40E94BDB081110C9460
:103D2000682D0C94722D0E944D5F0C94682DC090EC
:103D3000E60ED090E70EE090E80EF090E90E88E5F0
:103D40000E9406B1811109C020E030E040E352E456
:103D5000C701B6010E9401F902C00E948AB068A39F
:103D600079A38AA39BA3C090EA0ED090EB0EE090BB
:103D7000EC0EF090ED0E89E50E9406B1811109C0AC
:103D800020E030E040EE50E4C701B6010E9401F9A6
:103D900002C00E948AB09B01AC0169837A838B8345
:103DA0009C8368A179A18AA19BA10E94BE3188232E
:103DB00011F40C94682D80E00E94B0AF0E9462ACB8
:103DC00085E40E9406B1882321F00E947AB0182F62
:103DD00004C085E40E94BDB011E086E50E9406B1F2
:103DE000882321F00E9456B0262F01C021E0412FE8
:103DF000BE016F5F7F4FCE0180960E9424486B0109
:103E00007C019B01AC010E94F4FB81115FC088A082
:103E100099A0AAA0BBA020E030E0A901C501B4018F
:103E20000E940BF287FF05C027E137EB41E558EB15
:103E300004C027E137EB41E558E3C501B4010E9416
:103E400002F9AB01BC018CEE92E00E94BCDF8980DC
:103E50009A80AB80BC8020E030E0A901C501B401AC
:103E60000E940BF287FF05C027E137EB41E558EBD5
:103E700004C027E137EB41E558E3C501B4010E94D6
:103E800002F9AB01BC0187EE92E00E94BCDF20E0AA
:103E900030E0A901C701B6010E940BF287FF05C0FF
:103EA00027E137EB41E558EB04C027E137EB41E56B
:103EB00058E3C701B6010E9402F9AB01BC0182EED2
:103EC00092E00E94BCDF8AE00E949DB10E9449AC52
:103ED0000E9427910C94682D109268020C94682D12
:103EE000209368020C94682D0E948AB02B013C013B
:103EF000133049F0F60120813181428153810E94C3
:103F000001F92B013C01A8ADB9AD2D913D914D9129
:103F10005C91C301B2010E9401F94B015C012DEBE0
:103F200037E346E855EB0E9462FB87FD20C02DEB8E
:103F300037E346E855E3C501B4010E940BF21816B9
:103F4000B4F01F5FB4E0EB0EF11CE8ADF9AD3496B0
:103F5000F9AFE8AFF4E0CF0ED11C143039F1D10144
:103F60008D911D010E9406B1882359F3BDCF1330F6
:103F700051F44092F20E5092F30E6092F40E709251
:103F8000F50E01E0DECFA5019401F701608171819A
:103F9000828193810E9402F9D7016D937D938D9365
:103FA0009C931397812F0E9432AECBCF002309F44C
:103FB0004EC020E030E0A9016091F20E7091F30E46
:103FC0008091F40E9091F50E0E9402F92091831ACF
:103FD0003091841A4091851A5091861A0E9471F28C
:103FE0000E946FFB60932315709324158093251511
:103FF000909326159091DD148091DE14981719F096
:104000000E94118A24C00E946F8A80916F00982FAD
:10401000927081FF05C080916F008D7F80936F004B
:104020004091231550912415609125157091261506
:1040300040937C0E50937D0E60937E0E70937F0EA6
:10404000992329F080916F00826080936F000E9415
:1040500027910C94682D0E9488C90C94682D80913A
:10406000CD199091CE198537910511F40C940A2839
:104070000CF0B8C08C34910509F4F8C40CF050C0B1
:104080008931910509F426C31CF58431910509F4A1
:10409000C2C17CF48131910509F437C22CF4029736
:1040A00008F4BCC10C94172D429709F448C60C942F
:1040B000172D8631910509F475C20CF46FC2873152
:1040C000910509F475C2489709F48AC20C94172D1A
:1040D0008E31910509F4B4C384F48B31910509F450
:1040E0000DC30CF4FDC28C31910509F49FC34D97AB
:1040F00011F40C94682D0C94172D8032910509F45D
:10410000AAC20CF4C8C38A32910509F47AC48B346C
:10411000910511F00C94172D0E948F3A0C94682D84
:104120008A36910509F4C8C5B4F58435910509F4BA
:1041300006C6E4F48135910509F4EAC54CF48D34E2
:10414000910511F00C94172D0E94C83A0C94682D1B
:104150008235910509F4F0C58335910511F00C9471
:10416000172D81E0809367020C94682D8C359105A2
:1041700009F430C634F48535910509F412C60C945F
:10418000172D8836910509F475C48936910509F40F
:1041900033C50C94172D8F36910509F4A9C484F406
:1041A0008C36910509F4F7C40CF4A2C58D3691053F
:1041B00009F462C58E36910509F487C40C94172D55
:1041C0008137910509F4EEC40CF4E8C482379105F7
:1041D00009F488C68337910511F00C94172DE2ED90
:1041E000F4E0BDC6823231E0930711F40C94BB2B8E
:1041F0000CF07DC0893C910511F40C94362984F5AE
:104200008C38910509F43BC5ACF48737910509F466
:104210005CC70CF40EC78837910509F459C7893774
:10422000910511F00C94172D1092710210927002EA
:104230000C94682D8B39910509F4F9C434F4813953
:10424000910509F44BC70C94172D8E3B910509F489
:1042500030C5883C910511F40C94E6280C94172D78
:10426000833D910511F40C94682A44F58C3C91052A
:1042700011F40C946E296CF48B3C910511F00C94A4
:10428000172D0DE5E02E01E0F02E07E312E10C946E
:104290005F298D3C910511F40C94E3298E3C910526
:1042A00011F00C94172DBDE5CB2EB1E0DB2E13E5FC
:1042B000E12E17E0F12E10E00C94562A8D3D910569
:1042C00011F40C94782A3CF48C3D910511F40C9473
:1042D0006B2A0C94172D823E910511F40C94E72A59
:1042E0008831914011F40C94102B0C94172D843AC2
:1042F000A1E09A0711F40C94682C0CF042C08336AC
:10430000E1E09E0709F483C0ECF48D3221E09207CE
:1043100011F40C94EF2B3CF48C32914011F40C947A
:10432000C62B0C94172D8E3251E0950711F40C9486
:10433000F22B8F32914011F00C94172D0E94208B9C
:104340000C94682D8139B1E09B0711F40C945C2C1E
:104350004CF48039914011F00C94172D0E946F8A13
:104360000C94682D823921E0920711F40C94622C90
:104370008A39914011F00C94172D0E94EA8A0C940E
:10438000682D883F41E0940711F40C94712CFCF4E3
:10439000843FA1E09A0711F40C946B2C4CF48C3AF6
:1043A000914011F00C94172D0E94F1910C94682DFE
:1043B000853FF1E09F0711F40C946E2C863F9140ED
:1043C00011F00C94172D0E94A6D60C94682D8B38F2
:1043D00033E0930711F40C94682D6CF48C3052E0A8
:1043E000950711F40C94942C8335934011F40C949C
:1043F0009D2C0C94172D803AB3E09B0709F43EC224
:10440000873E934011F40C94022D0C94172DE5EA8D
:10441000F5E20C94492CEFE1F3E082C0A090CB19B7
:10442000B090CC1980E50E9406B1882359F00E9413
:1044300046B06B017C0111E0672B682B692B31F4CE
:1044400010E004C010E0C12CD12C760183E50E945D
:1044500006B1882311F40C94F82E0E948AB020E053
:1044600030E04AE754E40E9471F20E9475FA6B0151
:104470007C0111110BC0672B682B692B39F4A11437
:10448000B10421F0D5018C91811102C010E001C06E
:1044900011E00E946F8A112329F061E0C5010E949A
:1044A00031C805C060E084EF92E00E94F5C783E068
:1044B0008093EB0881E080930F12C114D104E104D2
:1044C000F104B1F00E940AE2C60ED71EE81EF91EE2
:1044D0000E940AE2DC01CB018C199D09AE09BF09DB
:1044E000B7FF0DC080910F1281110C94FD2E07C0F3
:1044F00080910F12882319F00E948935F9CF0E940C
:104500000E7210920F120C94682D60E087E093E019
:104510000E94F5C75E985E9815985E980C94682D79
:1045200084918F010F5F1F4F882321F00E949DB15E
:10453000F801F6CF1092331887EC95E10E9407B688
:104540008BE1E7ECF5E1DE01159601900D928A957D
:10455000E1F78091C5159091C6159C838B838BE7FD
:1045600091E09A83898340E050E0BE016F5F7F4F06
:1045700080E090E00E945698CE0101960E943F3262
:10458000E0E1F3E084918F010F5F1F4F882311F466
:104590000C94682D0E949DB1F801F4CF0E94C8468A
:1045A0000C94682D10926F15109270150C94682D54
:1045B0000E94AF9AE091CB19F091CC1980818823A9
:1045C00029F0803209F410823196F8CF40E061E0A2
:1045D0008091CB199091CC190E94314B0C94682D8D
:1045E00083E50E9406B1882381F00E9456B0AB019A
:1045F000BC0140932F18509330186093311870937A
:1046000032188FE597E10E94BFB38091701588231F
:1046100019F081E080936F1584E50E9406B188232C
:1046200009F454C00E9456B06B017C010E94743A98
:10463000C092800ED092810EE092820EF092830E94
:10464000CD28CE28CF2811F40C94682D81E08093DA
:10465000D8110C94682D80916F1581110E946F8A7A
:1046600080917015882311F40C94682D80E50E94C8
:1046700006B1882309F4FEC00E947AB0182F482F93
:1046800061E08091CB199091CC190E94314B83E568
:104690000E9406B1882381F00E9456B0AB01BC0194
:1046A00040932F185093301860933118709332183C
:1046B0008FE597E10E94BFB380917015882319F0B0
:1046C00081E080936F1511110C94682D0E948F3A30
:1046D0000C94682D10926F150E94B33A0C94682DBB
:1046E00080917015882311F40C94682D83E50E9445
:1046F00006B181110C94012F0C94682D83E40E9463
:10470000BDB0882309F450C0EDE5F3E084918F013A
:104710000F5F1F4F882321F00E949DB1F801F6CF53
:1047200080916217811103C0E0E3F3E012C0BE0183
:104730006F5F7F4F8FE597E10E94CEB48E010F5FD0
:104740001F4FF80181918F01882349F10E949DB18B
:10475000F8CF84918F010F5F1F4F882301F10E94D2
:104760009DB1F801F6CF75EBC72E73E0D72EE12C83
:10477000F12C20E08091541290E00E2C02C095950F
:1047800087950A94E2F780FDE3C13FEFE31AF30A4D
:1047900042E0C40ED11C55E0E516F10459F78AE059
:1047A0000E949DB10C94682D80917015882339F07A
:1047B00080916F15882319F0EAE3F3E003C0ECE47D
:1047C000F3E028C084918F010F5F1F4F882321F0F1
:1047D0000E949DB1F801F6CF60912F1870913018AA
:1047E00080913118909132184AE00E9426B28FE2EF
:1047F0000E949DB160912B1870912C1880912D18FA
:1048000090912E184AE00E9426B28AE00E949DB143
:104810000C94682D84918F010F5F1F4F882311F432
:104820000C94682D0E949DB1F801F4CF40E060E047
:104830008091CB199091CC190E94314B0C94682D2A
:1048400080917015882311F40C94682D8FE597E101
:104850000E941AD08FE597E10E94A9B410926E15BC
:1048600010926D158091CB199091CC190E941D9AD0
:104870000C94682D80E50E94BDB000CF8091CB19CB
:104880009091CC1921E020936E1540E060E00E94E9
:10489000314B0C94682D0E94403A7B018C0120E83A
:1048A00031E541E050E00E9461F8C9016DE671E038
:1048B0000E94D0F84B015C01C801B70120E13EE045
:1048C00040E050E00E9461F8CA01B90128E130E0FF
:1048D00040E050E00E9461F8762E672EC62ED72E5B
:1048E000ECE32E2E312C412C512CC801B701A20132
:1048F00091010E9461F8F62EE72ECA01B901A201CA
:1049000091010E9461F8CB018E010F5F1F4F81144E
:10491000910499F0EF92FF927F936F936F927F9241
:10492000BF92AF929F928F9284E993E09F938F936F
:104930001F930F930E94A3F113C0A114B104B1F00F
:10494000EF92FF927F936F936F927F92BF92AF929D
:1049500084E893E09F938F931F930F930E94A3F19A
:104960000FB6F894DEBF0FBECDBF30C0CD2879F0B2
:10497000EF92FF927F936F936F927F9288E793E01D
:104980009F938F931F930F930E94A3F1E9CF892BDD
:1049900069F0EF92FF927F936F9380E793E09F938C
:1049A0008F931F930F930E94A3F1DACFEF92FF92A0
:1049B0008CE693E09F938F931F930F930E94A3F134
:1049C0000F900F900F900F900F900F9060E0C80124
:1049D0000E9431C8E5E6F5E284917F01BFEFEB1A52
:1049E000FB0A882321F00E949DB1F701F5CFB801A1
:1049F00088EA93E00E94F2DF8AE00E949DB10C9465
:104A0000682D83E50E9406B1882311F40C94682D6B
:104A10000E9466B0E82E80E50E9406B1882311F45A
:104A20000C94682D0E9466B0182F87FF02C00C946A
:104A3000682D89E40E9406B1882341F00E947AB073
:104A400081110C94A02FECEDF5E00BC089E40E94DD
:104A5000BDB0F6CF319626E0E930F20711F40C94A0
:104A6000A02F84911813F6CF0C943A2F0E94B33ADA
:104A70000C94682D88E690E00E9493B281110C940A
:104A8000682D8091541283FF02C00C94682D83E539
:104A90000E9406B18823A9F00E948AB00E946EFA93
:104AA000CB010E9490C70E948AB020E030E04AEA21
:104AB00052E40E940BF2181624F00E94C83A0E9499
:104AC0000E720E940DE00C94682D8EE40E9406B1D7
:104AD000882311F40C94682D0E9456B060939614AC
:104AE0007093971480939814909399140C94682D54
:104AF00083E50E94BDB0882359F083E50E9406B18A
:104B0000882319F00E9466B001C080E0809354129F
:104B1000E5E6F5E284918F010F5F1F4F811103C01D
:104B2000E3ECF3E004C00E949DB1F801F3CF84915F
:104B30008F010F5F1F4F882321F00E949DB1F80164
:104B4000F6CF8091541281110ECEEFEBF3E018C036
:104B5000BB24B394B20E222319F08CE20E949DB1C3
:104B6000F60185919491FC0184918F010F5F1F4F95
:104B7000882321F00E949DB1F801F6CF2B2D05CEA0
:104B800084918F010F5F1F4F882309F408CE0E9484
:104B90009DB1F801F5CF109206019AC78AEC93E017
:104BA0000E945B3283E50E9406B1811103C0E5E6F5
:104BB000F5E20BC00E9466B08D3318F480930701B4
:104BC00087C78CE38093070183C784918F010F5FB0
:104BD0001F4F882321F00E949DB1F801F6CF40912C
:104BE000070150E060E070E083ED93E00E94C54370
:104BF0008AE00E949DB16CC789E690E00E9493B262
:104C0000811111C0EAEDF3E084918F010F5F1F4F16
:104C1000882321F00E949DB1F801F6CF0E943857F9
:104C20008AE00E949DB11092EB080C94B52F83E5A9
:104C30000E9406B1882309F44BC70E9466B0182F62
:104C40008D3308F01CE31093F8080E940AE26B0110
:104C50007C01212F30E0A8EEB3E00E94B5F8C60E2B
:104C6000D71EE81EF91EC092F408D092F508E09213
:104C7000F608F092F7082CC70E945E5D29C7809164
:104C8000541283FD25C783E50E9406B1882309F4E9
:104C90001FC70E948AB00E946EFA6E36710514F02A
:104CA0006EE670E070939518609394180E9477599F
:104CB0000FC70E949F930CC780E50E9406B1811127
:104CC00006C083E50E9406B1882359F005C00E9402
:104CD00066B08111FDC6F5CF0E9456B06F3F7105D9
:104CE00010F06FEF70E07093971860939618F0C60D
:104CF00080E50E9406B1811105C0109297181092AC
:104D00009618E6C60E9456B0672B09F0E1C6F5CFAB
:104D10000E94C3590E94AC8A10929718109296185C
:104D200068EE73E080E090E00E94F5C660E08DEDF3
:104D300093E00E94F5C7CCC610926702C9C683E50E
:104D40000E9406B1882399F00E948AB020E030E0EA
:104D50004AE754E40E9471F20E9475FA60930801D8
:104D60007093090180930A0190930B01B1C688E505
:104D70000E94BDB081110C94122F89E50E94BDB034
:104D800081110C94122F8AE50E94BDB081110C9400
:104D9000122F85E40E94BDB081110C94122F0C9447
:104DA000372F83E50E94BDB0882309F491C60E9485
:104DB0008AB020E030E04AE754E40E9471F20E9499
:104DC00075FA6093F0087093F1088093F20890935D
:104DD000F3087EC65DE5C52E51E0D52E67E7E62EC9
:104DE0006AE1F62E10E0D6018D916D010E94BDB0F2
:104DF000882309F46DC0133009F063C00E948AB0A3
:104E00004B015C0120E030E040EA51E40E940BF2EB
:104E100087FF4EC0A50194016091831A7091841A96
:104E20008091851A9091861A0E94FCF92B013C0111
:104E30009B01AC0160912712709128128091291278
:104E400090912A120E9471F2609327127093281297
:104E50008093291290932A12A30192016091431228
:104E60007091441280914512909146120E9471F205
:104E700060934312709344128093451290934612AC
:104E80006091631A7091641A8091651A9091661A04
:104E90000E9410F2A30192010E9471F20E9475FA21
:104EA0006093631A7093641A8093651A9093661ADC
:104EB0008092831A9092841AA092851AB092861AD0
:104EC00007C00E948AB0F701608371838283938355
:104ED0001F5FF4E0EF0EF11C143009F084CF0E9444
:104EE00072E1F6C50E946F8A83E50E9406B18823AD
:104EF00009F4ADC80E9456B06230710509F0A7C828
:104F00000E94BBDD8BE50E949DB1609115097091F7
:104F10001609809117099091180942E00E94F1B298
:104F20004091190950911A0960911B0970911C094F
:104F300080EF93E00E94BCDF40911D0950911E0953
:104F400060911F09709120098DEE93E00E94BCDFF3
:104F50008DE50E949DB18AE00E949DB1B9C5849102
:104F60008F010F5F1F4F882321F00E949DB1F80130
:104F7000F6CF60E082EC94E00E94F09061E08BEB71
:104F800094E00E94F09061E080EB94E00E94F09049
:104F900061E080EA94E00E94F09060E087E994E0AC
:104FA0000E94F09061E08DE894E00E94F09061E052
:104FB00083E894E00E94F09061E08BE794E00E9427
:104FC000F09061E08DE694E00E94F09060E08FE563
:104FD00094E00E94F09060E080E594E00E94F09000
:104FE00060E082E494E00E94F09060E08CE294E063
:104FF0000E94F09060E08BE194E00E94F09060E00D
:1050000086E094E00E94F09061E083EF93E00E94DC
:10501000F0905EC58091CB199091CC19DC012C9158
:10502000222321F060E00E9431C852C50E940E7216
:105030004FC50091CB191091CC1983E0D12C40E0E1
:105040008150E1F0F8019081292F2B7F2134C1F7A5
:1050500021812133A9F7913421F0953421F441E0E5
:1050600002C0DD24D39498012E5F3F4F89012F5F4A
:105070003F4FD8019C919032C9F3E2CF442369F0AD
:10508000E5E6F5E284917F01BFEFEB1AFB0A882386
:1050900021F00E949DB1F701F5CFDD2069F0E8E92C
:1050A000F5E084917F012FEFE21AF20A882321F0C4
:1050B0000E949DB1F701F5CFD8018D918D01882314
:1050C00009F46DCB0E949DB1F7CF0E944FD600C569
:1050D00081E08093710280937002FAC483E50E949C
:1050E00006B1882319F00E9456B002C060E070E05B
:1050F0008B01112702301105D4F0E5EAF5E2849125
:105100008F010F5F1F4F811103C0ECE9F5E004C070
:105110000E949DB1F801F3CF84918F010F5F1F4F63
:10512000882309F4D5C40E949DB1F801F5CF88E425
:105130000E9406B18823A9F00E9456B06A3A710510
:105140003CF06530B1E07B072CF064E071E002C018
:105150006AEA70E0F801EE0FFF1FE95AF74E71831B
:10516000608386E40E9406B18823A9F00E9456B0AD
:10517000F801EE0FFF1FE15AF74E718360836F3F16
:10518000710519F014F06FEF70E077FF02C060E076
:1051900070E07183608382E40E9406B1882309F481
:1051A00097C40E9456B06530710534F06F367105B2
:1051B0002CF06EE670E002C065E070E0000F111F99
:1051C000F801E55AF74E7183608382C488EC90E061
:1051D0000E9493B281117CC484E40E94BDB08823F4
:1051E00009F441C00E948AB06B017C0111E020E00B
:1051F00030E0A9010E940BF2811101C010E0109370
:10520000AC1920E030E0A901C701B6010E940BF201
:10521000882349F10E948AB0E091931124E0E29F33
:10522000F0011124E855F64E6083718382839383E5
:1052300020E030E0A9016091A8197091A91980912E
:10524000AA199091AB190E940BF281110CC080E059
:1052500090E0A0EEBFE38093A8199093A919A093C2
:10526000AA19B093AB190E94E1D132C48DE5E82EA2
:1052700081E0F82E07E61AE197E7C92E9AE1D92EC8
:10528000D7018D917D010E94BDB0882349F00E9415
:105290008AB00E9475FAF8016083718382839383D8
:1052A0000C5F1F4FC016D10659F70E943DE010C495
:1052B0000C5F1F4FF2E107341F0709F409C4D7013F
:1052C0008D917D010E94BDB0882391F30E948AB028
:1052D000F8016083718382839383EACF83E50E9420
:1052E00006B18823A1F00E948AB060932F127093B8
:1052F0003012809331129093321260932B1270937C
:105300002C1280932D1290932E1210E001C011E008
:1053100080E50E9406B1882359F00E948AB060930C
:105320002F1270933012809331129093321210E04A
:1053300082E50E9406B1882359F00E948AB06093EA
:10534000331270933412809335129093361210E01A
:1053500084E50E9406B1882359F00E948AB06093C8
:105360002B1270932C1280932D1290932E12B0C397
:10537000112309F4ADC340912F1250913012609166
:1053800031127091321284EC95E00E94BCDF4091A2
:10539000331250913412609135127091361281ECB3
:1053A00095E00E94BCDF40912B1250912C1260912D
:1053B0002D1270912E128EEB95E00E94BCDF8AE0D8
:1053C0000E949DB185C381E50E94BDB0882351F044
:1053D0000E9446B06093471270934812809349121E
:1053E00090934A1283E50E94BDB0882351F00E9439
:1053F0008AB060934F127093501280935112909321
:10540000521284E50E94BDB0882351F00E948AB0F8
:1054100060934B1270934C1280934D1290934E12E6
:1054200088E50E94BDB0882351F00E948AB0609345
:105430001B1270931C1280931D1290931E1289E50B
:105440000E94BDB0882351F00E948AB060931F1261
:105450007093201280932112909322128AE50E9469
:10546000BDB0882351F00E948AB0609323127093DC
:105470002412809325129093261285E40E94BDB0D9
:10548000882309F425C30E948AB060932712709381
:1054900028128093291290932A121AC31F5FF4E0F6
:1054A000EF0EF11C133011F40C942720D6018D91CE
:1054B0006D010E94BDB0882389F30E948AB0F70174
:1054C0006083718382839383812F0E9432AEE6CF03
:1054D0000E941290FDC283E50E9406B1882309F460
:1054E000F7C20E9456B07093290160932801F0C260
:1054F0008DED90E00E9493B28111EAC283E50E9493
:1055000006B1811103C0E5E6F5E23BC000919311BD
:1055100010E00E9456B0000F111FF801EA5DFE4F27
:10552000718360838091931190E08C01000F111FB3
:10553000000F111F98012E5D3E4F7901880F991FB2
:10554000FC01EA5DFE4F60817181072E000C880B23
:10555000990B0E9412F22AE037ED43E25CE30E94CD
:1055600071F2F801E151FE4E208131814281538177
:105570000E9471F2D7016D937D938D939C93139745
:10558000A7C284918F010F5F1F4F882321F00E94D3
:105590009DB1F801F6CF85E40E949DB180919311F1
:1055A000805D0E949DB1E0919311F0E0EE0FFF1F2E
:1055B000EA5DFE4F6081718184ED95E00E94D9DF44
:1055C00085E20E949DB18AE00E949DB181C280E582
:1055D0000E94BDB0882309F47BC20E9456B06B01C3
:1055E0007C0183E50E9406B1882321F00E9456B019
:1055F0008B0102C00FEF1FEFC8010196039708F05F
:1056000067C2D7FC65C28C2DECEDF5E0949189174B
:1056100009F430C43196B6E0E930FB07B9F72DC480
:1056200080E50E94BDB0882309F452C20E9456B0A2
:105630006B017C018B01672B19F0E5EAF5E27FC075
:1056400083E50E94BDB0811103C0E5E6F5E207C025
:105650000E9456B08CE495E10E94524239C2849176
:105660007F012FEFE21AF20A882321F00E949DB1F8
:10567000F701F5CF60E070E082E296E00E94D9DFAA
:1056800080914E1528E532E06901C81AD10887FDDE
:10569000D394CC0CDD1CCC0CDD1C0D2C000CEE08C6
:1056A000FF0880914D1528E830E04901881A9108DB
:1056B00087FD9394880C991C880C991C092C000C6C
:1056C000AA08BB0880914C158F3FB9F090E0FC010F
:1056D000EE0FFF1F8E0F9F1FFC01E95DFA4E018147
:1056E000128133E0000F111F3A95E1F744E016955F
:1056F00007954A95E1F70E5F1F4F98012F5F3F4FC7
:10570000C901330FAA0BBB0B9C01AD012819390944
:105710004A095B09A4EBB0E00E94A2F8A701960138
:10572000281939094A095B090E9483F8B9018FE1F8
:1057300096E00E94D9DF8AE00E949DB1C9C18491A0
:105740008F010F5F1F4F882321F00E949DB1F80148
:10575000F6CFB60188E196E00E94D9DFE9E0F6E0F5
:1057600084918F010F5F1F4F882309F4B1C10E94FC
:105770009DB1F801F5CF8AE50E9406B18111A5C35C
:1057800083E50E9406B18111A0C3A2C183E50E94F6
:1057900006B1882319F00E9456B002C064E071E09F
:1057A00079A368A380E50E9406B1882339F00E949E
:1057B00056B0693833E1730730F402C068EE73E025
:1057C0007A83698304C088E893E19A838983BE0160
:1057D000605E7F4FCE0101960E94814579C10E9493
:1057E0006F8F76C183E50E94BDB0182F882371F0BA
:1057F0000E948AB00E946EFA70932C0160932B0174
:1058000021E0672B09F020E02093531280E50E94ED
:10581000BDB0882359F020912B0130912C01232B0E
:1058200011F00E947AB08093531252C1111150C1ED
:10583000E5E6F5E284918F010F5F1F4F882321F089
:105840000E949DB1F801F6CF80915312882319F080
:105850006BE172E002C06EE172E08FE396E00E94BD
:10586000F2DF60912B0170912C018EE296E00E9494
:10587000D9DFEAE2F6E084918F010F5F1F4F8823A2
:1058800009F426C10E949DB1F801F5CF0E949DB197
:10589000F80184918F010F5F1F4F8111F7CFE2E56F
:1058A000F6E084918F010F5F1F4F882309F410C128
:1058B0000E949DB1F801F5CF81E00E9493AD0E9456
:1058C000279106C180E00E9493AD0E94279100C1FC
:1058D0000E94F792FDC00E94DBA6FAC00E94C3D7C7
:1058E000F7C02093A6190E9475A11092A6198823CB
:1058F00009F4EEC0E5E6F5E284918F010F5F1F4FDA
:10590000811103C0E1E6F6E004C00E949DB1F801F8
:10591000F3CF84918F010F5F1F4F882309F4D8C004
:105920000E949DB1F801F5CF80916F15882309F48D
:10593000CFC081E080937215CBC08AE50E9406B18A
:10594000811103C0E5E6F5E23BC00E948AB06B011D
:105950007C0120E030E040EA51EC0E9462FB87FDD0
:105960000AC020E030E040EA51E4C701B6010E94DD
:105970000BF218161CF4E5EAF5E20CC0C092E20E38
:10598000D092E30EE092E40EF092E50EA1C00E94E8
:105990009DB1F80184918F010F5F1F4F8111F7CFE7
:1059A000ECE6F6E084918F010F5F1F4F882309F426
:1059B0008FC00E949DB1F801F5CF0E949DB1F80102
:1059C00084918F010F5F1F4F8111F7CFECE8F6E054
:1059D00084918F010F5F1F4F882321F00E949DB19A
:1059E000F801F6CF4091E20E5091E30E6091E40E83
:1059F0007091E50E89E896E00E94BCDF8AE00E9483
:105A00009DB166C081E0809315011092461183E537
:105A10000E9406B1882339F00E947AB0811158C0E3
:105A20000E94F4DD55C083E50E94BDB0F7CF0E940F
:105A300088C94EC0F090CD190E946F8A10916407FA
:105A400080E00E94B0AFFF2029F1E5E6F5E2849105
:105A50008F010F5F1F4F882321F00E949DB1F80135
:105A6000F6CF84E50E949DB16F2D70E080E090E05C
:105A70004AE00E9426B280E20E949DB1EDEAF6E083
:105A800084918F010F5F1F4F882311F10E949DB1F8
:105A9000F801F6CF1092FB11812F0E94B0AFE5E61E
:105AA000F5E284918F010F5F1F4F882321F00E9440
:105AB0009DB1F801F6CF6091FB1170E08BE996E0A3
:105AC0000E94D9DF8AE00E949DB102C00E9488C96D
:105AD0001092EB080E94D7DD48C20E9413B10E94C9
